{
  "address": "0xDc1fa05AEb6E7F8cA26aFFFCD294B9c4725b96DD",
  "abi": [
    {
      "inputs": [],
      "name": "main",
      "outputs": [
        {
          "internalType": "string",
          "name": "",
          "type": "string"
        }
      ],
      "stateMutability": "pure",
      "type": "function"
    }
  ],
  "transactionHash": "0xe3e8bb0b564cac7e6bc3886bf1471a1aef9e8cc2184aabfad6bcfe41f85a14f1",
  "args": [],
  "numDeployments": 1,
  "solcInputHash": "56bcab0be0e2a8cd4a628fa86c61913e",
  "bytecode": "0x608060405234801561001057600080fd5b50610173806100206000396000f3fe608060405234801561001057600080fd5b506004361061002b5760003560e01c8063dffeadd014610030575b600080fd5b61003861004e565b604051610045919061011b565b60405180910390f35b60606040518060400160405280601081526020017f48656c6c6f2c20536f6c69646974792100000000000000000000000000000000815250905090565b600081519050919050565b600082825260208201905092915050565b60005b838110156100c55780820151818401526020810190506100aa565b60008484015250505050565b6000601f19601f8301169050919050565b60006100ed8261008b565b6100f78185610096565b93506101078185602086016100a7565b610110816100d1565b840191505092915050565b6000602082019050818103600083015261013581846100e2565b90509291505056fea2646970667358221220abf8c54b1e7e742758d4904ca4b71f67f3e557dc38fdf61cda637bbe8bb8e13764736f6c63430008130033",
  "devdoc": {
    "kind": "dev",
    "methods": {},
    "version": 1
  },
  "userdoc": {
    "kind": "user",
    "methods": {},
    "version": 1
  },
  "storageLayout": {
    "storage": [],
    "types": null
  }
}